:020000040000fa
:020000040040ba
:10000000f0ff4520dd354000b5444000bb444000d2
:10001000c7444000cd444000d344400000000000ed
:10002000000000000000000000000000231f40004e
:10003000c144400000000000231f4000d93b4000a5
:10004000231f4000231f4000231f4000231f4000a8
:10005000231f4000231f4000231f4000231f400098
:10006000231f400000000000231f4000231f40000a
:10007000231f4000231f4000231f4000231f400078
:10008000231f4000231f4000231f4000231f400068
:10009000231f4000231f4000231f4000231f400058
:1000a000231f4000231f4000231f4000231f400048
:1000b000231f4000231f4000231f4000231f400038
:1000c000231f4000231f4000231f4000231f400028
:1000d000231f4000231f4000231f4000231f400018
:1000e000231f4000231f4000231f4000231f400008
:1000f000231f4000231f4000231f4000231f4000f8
:10010000231f4000231f4000231f4000231f4000e7
:10011000231f40000000000000000000000000005d
:10012000231f4000231f4000231f4000231f4000c7
:10013000231f4000231f4000231f4000231f4000b7
:10014000231f4000231f4000231f4000231f4000a7
:10015000231f4000231f4000231f4000231f400097
:08016000231f4000231f400093
:020000040000fa
:020000040040ba
:10016800f8b500bff8bc08bc9e4670477d3a400011
:10017800f8b500bff8bc08bc9e467047593a400025
:020000040000fa
:020000040040ba
:100188002de9f04f55ec104b95b0476a0891814620
:100198000c9211931e9ecde9044547b9102004f036
:1001a80039f9c0e90177c9f824000760c760d9f8b0
:1001b8002430196859b15a684a60012393408b600a
:1001c800484603f072fed9f8243000221a60002d48
:1001d800bfbf0123336025f000430593a4bf00236c
:1001e8003360059ca84ba3431ad1119a42f20f73ae
:1001f8001360049bc4f31304234300f0ca841f9bb9
:1002080053b9a24b20e0a24b029308331f9a136004
:10021800029815b0bde8f08f9c4b02930333f5e7c5
:100228009ded047bb5ee407bf1ee10fa8ded0a7b77
:100238000cd1119a012313601f9b002b00f0a68498
:10024800944b1f9a1360013b0293e1e713a912aa8a
:100258009ded0a0b484602f0f7fbc4f30a550190de
:100268001299002d46d00b98c0f31300dde90a233c
:1002780040f07f5343f44013a5f2ff3a002607eeff
:1002880090aa43ec162bb8eee75b9fed794bb7eedf
:10029800087b36ee477b9fed786ba7ee046bb0eedc
:1002a800467b9fed776ba5ee067bfdeec76bb5ee43
:1002b800c07bf1ee10fa16ee90ba08d5b8eee66bf0
:1002c800b4ee476bf1ee10fa18bf0bf1ff3bbbf130
:1002d800160f34d8704b03ebcb0393ed007b9dede9
:1002e8000a6bb4eec76bf1ee10fa01d50bf1ff3bc8
:1002f800002325e0139b01eb030a0af23243202b6b
:1003080017ddc3f14003049a9c400af2124322fa13
:1003180003f3234307ee903ab8ee677b0af1ff3afe
:100328008ded027b0398dde902230126a0f1f87325
:10033800a5e7049ac3f1200302fa03f3eae70123cd
:10034800a1eb0a0a1093baf10103079343bf0023f4
:10035800caf1010a07934ff0000abbf1000f18db3e
:10036800079bcdf834b05b4407930027089b092b03
:1003780066d8052bc4bf043b0893089ba3f102036e
:10038800ccbf00240124032b65d8dfe803f0094b18
:1003980049570023aaeb0b0acbf100070d93e5e7b9
:1003a800002309930c9b002b59dc012306939846e4
:1003b8000c93d9f8245000226a60042202f1140038
:1003c800984269684fd9484603f010f8d9f82430a4
:1003d80028601b680293b8f10e0f00f2bc80002c55
:1003e80000f0b980bbf1000f40f3e3802a4a0bf01c
:1003f8000f0302ebc3034fea2b1293ed007bd306e6
:1004080040f1d580254b9ded0a5b93ed086b85ee99
:10041800066b8ded046b02f00f0203231f4948e0c1
:100428000123bee7002309930c9b5b4403f10108f9
:1004380006934346012bb8bf0123bae70123f2e72d
:1004480000230124cde90834013b00220693984695
:100458000c921223ade701230993023bf5e70c9bad
:1004680006939846a5e7013169605200a6e700bfe8
:1004780061436f63a787d23fb3c8608b288ac63fa2
:10048800fb799f501344d33f0000f07f4544400060
:100498003c4440004a444000802540006040400001
:1004a800d50704d591ed006b013327ee067b52107a
:1004b8000831002af4d19ded046b86ee077b8deda3
:1004c800047b109a002a00f0a680b7ee006b9ded21
:1004d800047bb4eec67bf1ee10fa40f19c80b8f1d3
:1004e800000f00f09880069a002a30ddb2ee046b07
:1004f80027ee067b8ded047b0bf1ff3101331446ab
:100508009ded046bb1ee0c5b07ee903ab8eee77b1d
:10051800a7ee065b8ded045b0598dde90423a0f1e9
:100528005073002c7ad1b1ee047b36ee476b43ec66
:10053800172bb4eec76bf1ee10fa00f34282b1ee5e
:10054800477bb4eec76bf1ee10fa00f13882dde9b3
:100558000a34cde90434139b002bc0f21b81bbf194
:100568000e0f00f31781894b03ebcb0393ed006b60
:100578000c9b002b80f2b880b8f1000f00f3b48018
:1005880040f01c82b1ee047b26ee076b9ded047be8
:10059800b4eec76bf1ee10fa4446464680f2f68197
:1005a800029d312305f8013b0bf1010bf2e1022317
:1005b80034e72ed0cbf10002744b02f00f0103ebad
:1005c800c10393ed007b9ded0a6b26ee077b8ded55
:1005d8000e7bdde90e346e49cde90434121100209a
:1005e80002233ab900283ff46cafdde90e12cde9d9
:1005f800041266e7d40709d59ded0e6b91ed007bdb
:1006080026ee077b8ded0e7b013301205210083159
:10061800e7e7022355e75946444671e743ec172bb1
:100628005a4b03ebc40313ed024b029b1c44099b7a
:100638004bb3b6ee003bb7ee002b029d83ee045b96
:10064800b2ee043b35ee477bfdeec64b14ee903a16
:10065800b8eee45b303336ee456bb4eec76bf1eec3
:1006680010fa05f8013b38d432ee465bb4eec75bae
:10067800f1ee10fa6fd4a5423ff469af27ee037b81
:1006880026ee036be0e7029a24ee077b2546b2eede
:10069800043bfdeec64b14ee903a303302f8013bb2
:1006a800a242b8eee45b36ee456b1ad1b6ee005bbb
:1006b80037ee054bb4eec46bf1ee10fa4bdc35eeb9
:1006c800477bb4eec76bf1ee10fa7ff540af15f833
:1006d800013c302b05f1ff3201d08b462ae015464c
:1006e800f5e726ee036bd4e79ded047bb2ee044bf1
:1006f800029d87ee065bbdeec55b15ee103a303302
:1007080005f8013b029beb1a9845b8eec53ba3eef2
:10071800467b33d137ee077bb4eec67bf1ee10fa99
:1007280018dcb4ee467bf1ee10fa03d115ee103a60
:10073800db070fd40199484603f0b7fb0023119a51
:100748002b700bf1010313601f9b002b3ff460ad6e
:100758001d605de5594615f8012c392a05f1ff336e
:1007680006d1029a9a4207d10298302201310270ca
:100778001a7801321a70b0e71d46ece727ee047bc1
:10078800b5ee407bf1ee10fab3d1d3e780254000f7
:1007980060404000099a002a00f0bb80089a012aac
:1007a80000f3a280002e00f09b8003f233433c4606
:1007b8005546079a01211a4448469a44079203f07d
:1007c800fefd0646002d0bdd079b002b08ddab4226
:1007d800079aa8bf2b46aaeb030aed1ad31a079368
:1007e800f7b1099b002b00f09880002c11dd3146f1
:1007f8002246484602f0c6f9019a0146064648468e
:1008080001f05cfa01990a90484603f04efb0a9bf6
:1008180001933a1b04d00199484602f0b3f90190bc
:100828000121484603f0cbfd0d9b002b044676dde5
:100838001a460146484602f0a5f9089b012b0446d2
:1008480070dd0027236904eb8303186903f080f93e
:10085800c0f12000079b184410f01f007dd0c0f1a4
:100868002003042b77ddc0f11c00079b034482445e
:1008780005440793baf1000f05dd52460199484631
:1008880001f0eaff0190079b002b05dd21461a467f
:10089800484601f0e1ff0446109b002b5fd021463b
:1008a800019803f040fa002859da00230a22019936
:1008b800484602f0d5fb099b01900bf1ff3b002b4a
:1008c80000f06e81002331460a22484602f0c8fb38
:1008d800069b002b06467ddc089b022b7add46e052
:1008e800129bc3f1360362e708f1ff34a742bfbf8a
:1008f8000d9be71bdb190d93b6bf27463c1b002455
:10090800b8f1000fb9bfaaeb0805002355464346c6
:100918004fe73c465546099e54e73a467be7089b15
:10092800012b14dc049b93b9059bc3f3130282b912
:10093800aa4f1f402fb1079b01330af1010a079301
:1009480001270d9b002b7ff47daf012082e7002754
:10095800f7e7049ff5e78dd018461c3085e7b8f116
:10096800000f31dc089b022b2eddcdf81880069b8a
:1009780063b921460522484602f072fb0146044647
:10098800019803f0d0f900283ff70aae0c9b029dae
:100998006fea030b00272146484603f086fa002e2b
:1009a8003ff4c8ae2fb1b74203d03946484603f0ea
:1009b8007cfa3146484603f078fabbe6002426461e
:1009c800e4e78b462646ebe5099bcdf81880002b1b
:1009d80000f0ed80002d05dd31462a46484601f03d
:1009e8003bff0646002f54d07168484602f0fefcd3
:1009f800326902320546920006f10c010c3003f010
:100a080071fc01222946484601f026ff029b029a02
:100a180003f10108069b13440c93049b03f00103a4
:100a280037460993064608f1ff3321460198069395
:100a380001f0dcf93946049000f1300a019803f01e
:100a480072f9324607902146484601f031fdc268e6
:100a5800054602bb0146019803f065f9024629469e
:100a680048460a9203f021fa089b0a9a43ea0201cf
:100a7800099b0b43454610d1baf1390f29d0079b82
:100a8800002b02dd049b03f1310a069b83f800a0ca
:100a980081e73046bae70122e1e7079b002b04db38
:100aa80008990b4309990b431ed1002aeddd012259
:100ab8000199484601f0d0fe2146019003f033f930
:100ac800002803dce1d11af0010fded0baf1390faa
:100ad800d8d1069a3923137015f8013c392b05f142
:100ae800ff3249d0013307e0002a07ddbaf1390f98
:100af800efd0069a0af1010313704ce70c9b08f833
:100b080001ac984520d000230a220199484602f0fa
:100b1800a7fab74201904ff000034ff00a02394696
:100b2800484606d102f09cfa0746064608f1010835
:100b380079e702f095fa002307460a22314648462b
:100b480002f08efaf1e7002701220199484601f0e8
:100b580083fe2146019003f0e6f80028bcdc02d1b0
:100b68001af0010fb8d115f8013c302b05f1ff320e
:100b78007ff411af1546f6e7029b934204d10bf1bf
:100b8800010b3123029ab7e71546a5e7144bfff787
:100b98005bbb1f9b002b7ff436ab124bfff754bb9c
:100ba800069b002b03dc089b022b3ff7e0ae029d5f
:100bb8000198214601f01af900f1300a029b05f864
:100bc80001abea1a069b9342bddd00230a22019974
:100bd800484602f045fa0190eae700bf0000f07fbe
:080be800494440003c44400078
:020000040000fa
:020000040040ba
:100bf0002de9f04f2ded028b8bb00c461646ddf83b
:100c000058901f46054603f04dfc036803931846b1
:100c100003f00cfcd9f800300490073323f00703ed
:100c200003f1080294f818b0d4f80080c9f8002045
:100c3000d3e90023c4e912239fedb57b94ed128b19
:100c4000b0eec86bb4ee476bf1ee10fa27ddb5eeef
:100c5000c08bf1ee10fa02d52d2384f84330ae4b51
:100c60001a1dbbf1470f88bf13460293032323616c
:100c70004ff0000a28f004032360d0460097334663
:100c800008aa2146284601f0cdfa013040f0028141
:100c90004ff0ff300bb0bdec028bbde8f08fb4ee2f
:100ca000488bf1ee10fa08d718ee903a002bbcbf33
:100cb0002d2384f84330994bd2e763685a1c0bf01c
:100cc000df0919d10623636048f48063236018eebe
:100cd000903a002bb6bf2d230023b1ee488bb9f11b
:100ce000460fd4f804a005930dd0b9f1450f01d1fa
:100cf0000af1010a022107e0b9f1470fe4d1002b04
:100d0000e2d10123dfe7032108ab019307ab009396
:100d1000524606abb0ee480b2846fff735fab9f15c
:100d2000470f029053d118f0010f50d1029a089b3f
:100d3000b9f1470fa3eb020a069a6cd1d31c03db6f
:100d40006368934280f29580abf1020b5ffa8bfbf4
:100d5000531e002b0693b6bfc2f101032b222d2296
:100d6000092b04f1500884f850b084f851206fdd4d
:100d70000df127024ff00a0e93fbfef10efb11302e
:100d80003030632b02f1ff3c02f8010c58dc3031ab
:100d9000023a0cf8011c04f152030df127008242c3
:100da000194650d3a1eb08080aeb0803baf1010f6a
:100db000236102dc2268d00701d501332361059b42
:100dc000002b3ff45baf2d2384f8433056e7029ba2
:100dd000b9f1460f03eb0a020cd11b78302b07d177
:100de000b5ee408bf1ee10fa1cbfcaf10103069379
:100df000069b1a44b5ee408bf1ee10fa00d1089232
:100e0000089b9a4292d93021581c08901970089b6f
:100e10009a42f9d88ae7bbf1650f99d9bbf1660f01
:100e200029d1002a63681cdd226113b92168c90732
:100e300002d5013313442361a2654ff00008bee7d9
:100e400062460b4698e712f8011b03f8011ba6e760
:100e50003022134484f8522004f1540184f85330b2
:100e6000a0e713b92168c80701d50233e3e70123de
:100e7000e1e74ff0670b524505db23682261d90794
:100e8000dad5531cd7e7002ad4bfc2f102030123ed
:100e90005344d0e723685a0507d42369029a3146a0
:100ea0002846b847013029d1f2e6bbf1650f40f280
:100eb000d48094ed127bb5ee407bf1ee10fa3cd17c
:100ec0000123174a31462846b84701303ff4e0aec7
:100ed000069b534502db2368d8070fd5dde90323c2
:100ee00031462846b84701303ff4d2ae0af1ff3907
:100ef0004ff0000804f11a0ac14513dc23689b0770
:100f000000f1fa80e068089b9842b8bf1846c1e635
:100f1000ffffffffffffef7fb4434000bc434000f3
:100f2000c44340000123524631462846b8470130a9
:100f30003ff4aeae08f10108dee7069b002b2bdc88
:100f40000123704a31462846b84701303ff4a0ae2d
:100f5000069b5aea030302d12368d907ced5dde9ff
:100f6000032331462846b84701303ff491ae4ff095
:100f7000000804f11a09069b5b42434501dc534615
:100f80008ce701234a4631462846b84701303ff4f2
:100f90007fae08f10108eee7a36d5345a8bf5346a5
:100fa000002b984606dd029a31462846b8470130a4
:100fb0003ff46eae04f11a034ff0000b28eae87814
:100fc000059309e00123059a31462846b8470130c8
:100fd0003ff45eae0bf1010bd4f85890a9eb080377
:100fe0005b45efdc069b53451adb2368da0717d411
:100ff000069b99451cdbaaeb0908b8f1000f08dd38
:10100000029a43464a4431462846b84701303ff4e5
:101010003fae4ff0000928eae87804f11a0b14e01b
:10102000dde9032331462846b8470130e0d12fe6f9
:10103000aaeb0308e1e701235a4631462846b847a0
:1010400001303ff425ae09f10109069baaeb030329
:10105000a3eb08034b45eedc50e7baf1010f01dcce
:10106000db0736d50123029a31462846b8470130be
:101070003ff40eaedde9032331462846b847013080
:101080003ff406ae94ed127bb5ee407bf1ee10fa24
:101090000af1ff3b18d0029a5b46013231462846de
:1010a000b84701300cd1f3e50123524631462846ba
:1010b000b84701303ff4ecad09f10109cb45f3dc51
:1010c000434604f15002eae64ff0000904f11a0a1f
:1010d000f4e70123029ae1e701234a463146284614
:1010e000b84701303ff4d4ad08f10108e368089a2d
:1010f0009b1a4345f0dc05e74ff0000804f119099d
:08110000f4e700bfc443400006
:020000040000fa
:020000040040ba
:10110800f80240201c0000000000000020034020de
:101118000400000000000000240340200400000038
:101128000000000028034020040000000000000028
:10113800400340200100000000000000140340208c
:101148000c00000000000000700240202800000091
:101158000000000070014020a00000000000000016
:101168002c03402004000000000000003003402051
:10117800040000000100000010024020100240207e
:10118800600000000100000000000000b8024020dc
:10119800d802402098024020000000000000000013
:1011a8000000000000000000000000000000000037
:1011b8000000000000000000000000000000000027
:1011c8000000000000000000000000000000000017
:1011d8000000000000000000000000000000000007
:1011e80000000000000000009802402020000000dd
:1011f80000000000b80240202000000000000000ad
:10120800d8024020200000000000000034034020e5
:101218000400000000000000380340200400000023
:1012280000000000040040206c01000001000000e4
:101238004300000000000000000000000000000063
:101248000000000000000000000000000000000096
:101258004300000000000000000000000000000043
:101268000000000000000000000000000000000076
:101278004300000000000000000000000000000023
:101288000000000000000000000000000000000056
:101298004300000000000000000000000000000003
:1012a8000000000000000000000000000000000036
:1012b80043000000000000000000000000000000e3
:1012c8000000000000000000000000000000000016
:1012d80043000000000000000000000000000000c3
:1012e80000000000000000000000000000000000f6
:1012f80043000000000000000000000000000000a3
:1013080000000000000000000000000000000000d5
:101318004143400089414000000000003020400067
:101328009144400090444000904440009044400064
:101338009044400090444000904440009044400055
:101348009044400090444000ffffffffffffffff75
:10135800ffffffffffff0000010041534349490021
:101368000000000000000000000000000000000075
:1013780000000000000000000000415343494900fc
:101388000000000000000000000000000000000055
:1013980000000000000000000000000000004020e5
:1013a80004000000000000003c034020040000008e
:1013b800000000000000000000000000222222229d
:020000040000fa
:020000040040ba
:1013c8002de9f04306460c4601f14300097e85b03d
:1013d8006e29984617460c9b00f0ba8024d86329da
:1013e80039d00ad8002900f0c380582900f091802c
:1013f80004f1420584f8421035e0642901d06929d6
:10140800f6d125681a6815f0800f02f104012cd076
:1014180012681960002a03da2d23524284f84330f7
:10142800dff8bcc10a233fe0732900f0a58008d883
:101438006f2921d07029dbd1226842f02002226076
:1014480003e0752918d07829d2d1782284f845206c
:10145800dff890c161e01a68111d1960136884f8fb
:10146800423004f14205012393e01268196015f037
:10147800400f18bf12b2cde7d4f800c01a681cf0ac
:10148800800f02f104051d6001d0126803e01cf012
:10149800400ffad01288dff848c16f290cbf082323
:1014a8000a23002184f843106568a560002da2bfb7
:1014b800216821f0040121600ab9002d46d00546b3
:1014c800b2fbf3f103fb112e93421cf80ee005f872
:1014d80001ed39d9082b0bd12368da0708d5236920
:1014e80062689a42debf302305f8013c05f1ff35fa
:1014f800401b2061cdf800803b4603aa21463046b8
:1015080000f08cfe013049d14ff0ff3005b0bde846
:10151800f083dff8ccc084f845101d68216855f8c1
:10152800042b1d600d060bd5cd0744bf41f02001eb
:1015380021601ab9236823f0200323601023b0e741
:101548004b0648bf92b2efe70a46b9e70546c1e73e
:101558001a68d4f800c06169151d1d601cf0800f61
:10156800136801d0196003e01cf0400ffad019800d
:10157800002323610546bde71a68111d1960156827
:1015880062680021284601f00ffa08b1401b60602c
:1015980063682361002384f84330abe723692a4654
:1015a80039463046c0470130aed023689b0713d474
:1015b800e068039b9842b8bf1846a7e701234a464c
:1015c80039463046c04701309ed00135e368039a5a
:1015d8009b1aab42f2dcebe7002504f11909f5e7a9
:0815e800d0414000e141400048
:020000040000fa
:020000040040ba
:1015f00080b400af744b0022c3f81421724bd3f8af
:101600001431714a43f01003c2f814316f4b4ff09c
:1016100000721a676d4b4ff05e425a676b4b6c4a13
:101620005a606a4b6b4a1a60684b4ff0ff325a653a
:10163000664b6ff400621a66644b4ff400625a66a0
:10164000624b4ff0ff32c3f89020604b4ff0ff32f7
:10165000c3f8a0205d4b20221a615c4b6ff0200282
:101660005a615a4b20229a63584b0022c3f8182122
:10167000594b14221a67584b14225a67564b14229e
:101680005a60554b6ff014021a60534b4ff0ff3203
:101690005a65514b4ff0ff321a664f4b4ff0ff32f5
:1016a000c3f890204c4b4ff0ff32c3f8a0204a4bb8
:1016b0004ff484721a61484b6ff484725a61464b3e
:1016c0004ff484729a63444b0022c3f81821434bb1
:1016d0004ff0ff321a60414b4ff0ff325a653f4bdb
:1016e0004ff0ff321a663d4b4ff0ff32c3f89020a7
:1016f0003a4b4ff0ff32c3f8a020384b00221a615a
:10170000364b4ff0ff325a61344b00229a63334b11
:101710000022c3f81821324b4ff027621a67304b72
:1017200000225a672e4b4ff027625a602c4b6ff005
:1017300027621a602a4b4ff0ff325a65284b4ff050
:10174000ff321a66264b4ff0ff32c3f89020244b2d
:101750004ff0ff32c3f8a020214b00221a61204b2a
:101760004ff0ff325a611e4b00229a631c4b00223d
:10177000c3f818211b4b4ff0ff321a60194b4ff082
:10178000ff325a65174b4ff0ff321a66154b4ff078
:10179000ff32c3f89020134b4ff0ff32c3f8a02064
:1017a000104b00221a610f4b4ff0ff325a610d4b64
:1017b00000229a630b4b0022c3f8182100bfbd46dc
:1017c0005df8047b704700bf00800840000e0e40ab
:1017d000010020defeffdf2100100e4000120e404f
:0817e00000140e4000160e403b
:020000040000fa
:020000040040ba
:1017e8002de9f04f0d469db014461e46074618b128
:1017f80083690bb901f08efe704b9d425cd17d6808
:10180800ab891b0762d52b69002b5fd00023099396
:10181800dff8ac91039620238df8293030238df81a
:101828002a304ff0ff3809f1060a23461e4613f8fe
:10183800012b0ab1252af9d1b6eb040b0bd05b4674
:1018480022462946384601f0c3ff013000f0b08037
:10185800099b5b4409933378002b00f0a98000238f
:10186800cde905830136049307938df853301a9315
:101878004ff0010b3446052214f8011b504801f0c3
:1018880093f8049b68bbd80644bf20228df85320e8
:10189800190744bf2b228df8532032782a2a28d0e2
:1018a800079a344600200a26214611f8013b303bae
:1018b800092b60d918bb29e0424b9d4201d1bd6874
:1018c8009ee7414b9d4208bffd6899e72946384687
:1018d80000f01afd002899d04ff0ff301db0bde888
:1018e800f08fa0eb09000bfa00f01843049026468d
:1018f800c0e7039a111d12680391002a01db0792c1
:1019080004e0524243f002030792049323782e2bfb
:101918000bd163782a2b33d1039b1a1d1b680392c2
:10192800002bb8bf43460234059303222178274889
:1019380001f03af840b14023a0eb0a0003fa00f0a6
:10194800049b03430134049314f8011b20488df8c9
:101958002810062201f028f803ab00932a461d4bf5
:1019680004a908b33846fff73ff9421c20d0099b69
:101978000344099359e706fb023201200c4693e71a
:1019880000230134059319460a26204610f8012b36
:10199800303a092a03d9002bc7d00591c5e706fbc1
:1019a800012101230446f0e73846fff709fddce78b
:1019b800ab895b0690d4099890e700bfb802402035
:1019c800d8434000d802402098024020de4340001f
:0819d800e2434000d937400052
:020000040000fa
:020000040040ba
:1019e00090b58bb000aff860b9607a603b600023bf
:1019f0007b6200233b620023fb610023fb76bb6814
:101a0000002b02d0fb68002b07d13b68002b00f0b5
:101a1000a6807b68002b00f0a280fb68002b01d120
:101a20000023bb607b68002b01d100233b604e4c40
:101a300001f082fe03460c3354f8233003f0f00328
:101a40007b61494b9b689bb23b613a68bb689a4299
:101a500003d93a68bb68d31afb617b69002b08d0b5
:101a60003b685b083b60bb685b08bb60fb695b086d
:101a7000fb6100bf3c4b1b6903f00203002bf9d054
:101a800059e07a6abb689a4215d07b69002b08d16d
:101a90007b6a5a1c7a62fa6813441a78324bda600d
:101aa0001ae07b6a5a1c7a625b00fa6813441a884f
:101ab0002d4bda6010e0fb69002b0dd07b69002b09
:101ac00003d1294bff22da6003e0274b4ff6ff7268
:101ad000da60fb69013bfb613b68002b07d100bf6b
:101ae000214b1b6903f00203002bf9d023e000bf58
:101af0001d4b1b6903f00103002bf9d01a4b9b68a7
:101b00009bb23b613a6a3b689a4214d27b69002bd4
:101b100008d13b6a5a1c3a627a6813443a69d2b2d5
:101b20001a7008e03b6a5a1c3a625b007a681344f8
:101b30003a6992b21a807a6abb689a42a1d1fb696b
:101b4000002b9ed100bf084b1b6903f40073002bd0
:101b5000f9d0054b4ff080721a600123fb76fb7eb3
:0c1b600018462c37bd4690bd00800040a8
:020000040000fa
:020000040040ba
:101b6c002de9f7431e46504b1d6804460f46904620
:101b7c0025b1ab6913b9284601f0cafc4b4b9c420a
:101b8c0052d16c68b8f1020f06d0b8f1010f00f217
:101b9c008780002ec0f284802146284601f09cfdef
:101bac00616b41b104f14403994202d0284600f024
:101bbc0099ff002363630023a3616360a3891b0661
:101bcc0003d52169284600f08dffa38923f44a63cd
:101bdc0023f00303b8f1020fa3815dd001ab6a4679
:101bec002146284601f0a8fea3891843a0812ebbec
:101bfc00009e304602f00cfc0746002847d1ddf869
:101c0c000090b1453cd14ff0ff30a38943f0020363
:101c1c00a3810023a36004f1470323602361012304
:101c2c00636103b0bde8f083214b9c4201d1ac68e9
:101c3c00a8e7204b9c4208bfec68a3e7002fd8d044
:101c4c00ab6913b9284601f063fcb8f1010f08bf6a
:101c5c00a389276004bf43f00103a381a38913f078
:101c6c000800c4e9047619d013f0010018bf7642bd
:101c7c004ff000031dbfa360a6611846a660d0e715
:101c8c00484602f0c5fb07460028bcd04e46a38947
:101c9c0043f08003a381d3e70020b6e7a060c0e740
:101cac004ff0ff30bde700bf30034020b8024020aa
:081cbc00d802402098024020ec
:020000040000fa
:020000040040ba
:101cc4002de9f04f15460a692b699a420c46bcbfb0
:101cd4002c460d46d4f81090d5f81080a36861689e
:101ce40009eb0807bb4285b0b8bf013101f080fba6
:101cf40000f1140606eb870e33460022734519d310
:101d040004f1140303eb890305f11402009302ebbd
:101d1400880301934ff6ff75019b029293420cd8fe
:101d2400002f03dd5ef8043d002b5fd0076105b092
:101d3400bde8f08f43f8042be0e7136813ea050cc1
:101d440027d004f1140ab0464ff000095af8041bd6
:101d540001ea05030393d8f8003003ea050b039b5b
:101d64000cfb03b34fea114bd8f800104b444fea75
:101d740011490cfb0b9101eb13412b4043ea014346
:101d840048f8043b009b53454fea1149ded8c8f894
:101d94000090029bb3f802900432b9f1000f23d0f3
:101da400336804f11408b4464ff0000ad8f8001060
:101db400bcf802b0294009fb01b18a442b4043ea34
:101dc4000a434cf8043b58f8043bdcf800101b0ca5
:101dd400294009fb0313009903eb1a4341454fead9
:101de400134ae3d8ccf80030043695e7013f97e76f
:020000040000fa
:020000040040ba
:101df4002de9f74f03690c69a3428046c0f28d8038
:101e0400013c01f114074fea840c07eb0c0300f1c9
:101e14001405009305eb0c03019357f8243055f88f
:101e2400242001339a42b2fbf3f636d34ff0000a72
:101e3400be46a946d3464ff6ff705ef8042b02ea6d
:101e4400000306fb03a34fea134a0340abeb03036f
:101e5400120cd9f800b006fb02a213fa8bf34fea76
:101e6400124a02ea000bd9f80020cbeb124202eb33
:101e74002342034043ea024349f8043b009b734571
:101e84004fea224bd9d255f80c3033b9019b043bad
:101e94009d421a4635d3c8f81040404601f045ff2c
:101ea40000282adb013628464ff0000e4ff6ff7c4f
:101eb40057f8042bd0f8009002ea0c03aeeb0303ae
:101ec400120c13fa89f3c2eb194202eb234203ea20
:101ed4000c034fea224e43ea0242009b40f8042bd3
:101ee400bb42e5d255f8242005eb84032ab9043b10
:101ef4009d421a460bd3c8f81040304603b0bde8e3
:101f0400f08f1268043b002ac5d1013cc0e7126877
:0e1f1400043b002aefd1013ceae70020eee793
:020000040000fa
:020000040040ba
:021f2200fee7d8
:020000040000fa
:020000040040ba
:101f24008a892de9f041054610070c4658d44b68c0
:101f3400002b05dc0b6c002b02dc0020bde8f081db
:101f4400e66a002ef9d0002312f480522f682b6029
:101f540032d0606da3895a0705d56368c01a636bd4
:101f64000bb1236cc01a00230246e66a216a284694
:101f7400b047431ca38906d129681d292cd82a4ab5
:101f8400ca40d60728d500226260d904226922609b
:101f940004d5421c01d12b6803b96065616b2f60c5
:101fa4000029cad004f14403994202d0284600f023
:101fb4009dfd00206063c1e7216a01232846b047e4
:101fc400411cc7d12b68002bc4d01d2b01d0162b6c
:101fd40001d12f60b1e7a38943f04003a381ade7aa
:101fe4000f69002fa9d093070e6808bf4b690f60d3
:101ff40018bf0023a6eb07088b60b8f1000f9cdd27
:1020040043463a46216aa66a2846b047002806dcb9
:10201400a38943f04003a3814ff0ff308ee70744c8
:0c202400a8eb0008e9e700bf0100402025
:020000040000fa
:020000040040ba
:102030000020202020202020202028282828282098
:102040002020202020202020202020202020202090
:1020500020881010101010101010101010101010f8
:1020600010040404040404040404041010101010e8
:1020700010104141414141410101010101010101b2
:102080000101010101010101010101011010101004
:102090001010424242424242020202020202020284
:1020a00002020202020202020202020210101010d8
:1020b0002000000000000000000000000000000000
:1020c0000000000000000000000000000000000010
:1020d0000000000000000000000000000000000000
:1020e00000000000000000000000000000000000f0
:1020f00000000000000000000000000000000000e0
:1021000000000000000000000000000000000000cf
:1021100000000000000000000000000000000000bf
:1021200000000000000000000000000000000000af
:0121300000ae
:020000040000fa
:020000040040ba
:102134002de9f00388b000af78604ff000034ff052
:102144000004c7e90634354bfb60fb681b6a7b61fe
:1021540000233b617b68002b59d07b689b68bb6084
:102164007b69002b28d17b68ba689a60fb687a681f
:102174001a624de07b699b6819464ff00002d7e96b
:102184000634cd1842eb0406bb684ff00004b44299
:1021940008bfab4214d37b699b684ff00004d7e9b6
:1021a400061211eb030842eb0409c7e906897b69af
:1021b4003b617b699b697b617b69002bdad100e021
:1021c40000bf3b69002b06d1fb687a681a627b6802
:1021d4007a699a6106e03b699a697b689a613b690e
:1021e4007a689a61bb69ba68d21a7b689a607b681c
:1021f4009b69002b0cd07b689b68bb607b689b69e8
:1022040099687b689b69ba688a1a9a6000e000bf83
:102214002037bd46bde8f003704700bf7002402080
:020000040000fa
:020000040040ba
:102224002de9f04791461f468a680b69ddf8208046
:102234009342b8bf1346c9f8003091f843200646cc
:102244000c4612b10133c9f800302368990642bf25
:10225400d9f800300233c9f80030256815f00605b6
:1022640007d104f1190ae368d9f800209b1aab429c
:1022740028dc94f843302268003318bf0123920607
:102284002dd404f1430239463046c047013020d0f2
:102294002368e568d9f8002003f00603042b08bf7f
:1022a400ad1aa36822690cbf25eae575002593429f
:1022b400c4bf9b1aed184ff000091a344d451ad1ca
:1022c400002008e00123524639463046c047013019
:1022d40003d14ff0ff30bde8f0870135c3e7e118c3
:1022e4005a1c302081f84300224494f8451082f8a7
:1022f40043100233c5e70123224639463046c0471e
:0a2304000130e6d009f10109d8e725
:020000040000fa
:020000040040ba
:02230e00704716
:020000040000fa
:020000040040ba
:10231000324b70b51d6806460c4625b1ab6913b942
:10232000284601f0fbf82e4b9c420fd16c68b4f9a3
:102330000c309ab215072cd4d00611d40922326081
:1023400043f04003a3814ff0ff303ee0254b9c4219
:1023500001d1ac68ebe7244b9c4208bfec68e6e790
:10236000510712d5616b41b104f14403994202d087
:10237000304600f0bdfb00236363a38923f02403f0
:10238000a3810023636023692360a38943f00803ca
:10239000a38123694bb9a38903f42073b3f5007fac
:1023a00003d02146304600f0cdfca28912f0010393
:1023b0000cd00023a36063695b42a361236953b916
:1023c000b4f90c3013f08000bad170bd920758bf39
:1023d0006369a360f2e70020f7e700bf3003402005
:0c23e000b8024020d802402098024020a3
:020000040000fa
:020000040040ba
:1023ec0080b483b000af7860284b294a5a6000bf94
:1023fc00264b9b6803f00103002bf9d0234bdb68c1
:10240c00244a1360234b1b68db0903f003037a682f
:10241c009a4234d07b6803f00203002b03d01e4b8e
:10242c000b221a6002e01c4b0c221a601a4b1a6821
:10243c0016491a4b13434b6000bf144b9b6803f0b7
:10244c000103002bf9d07b6803f00103002b03d0b0
:10245c00114b0b221a6002e00f4b0c221a600e4b30
:10246c001a680a490e4b13434b6000bf074b9b681d
:10247c0003f00103002bf9d00a4b0b4a1a6000bf82
:10248c000c37bd465df8047b704700bf000c0e4056
:10249c000d00005a24034020280340200008005a55
:0c24ac000007005a00180e40010000a5b7
:020000040000fa
:020000040040ba
:1024b8002de9f84f0d46074611462846144601f007
:1024c80032fc061e08d13146384600f08fff012342
:1024d800c0e90436bde8f88fa4bf23462c46384629
:1024e8006168a6bf1d460026012600f07fff2b6904
:1024f8002769c66004f1140205f1140602eb870887
:1025080006eb830e00f114054ff0000a4ff6ff7931
:1025180052f804bb56f8043b1afa8bfa03ea09018d
:102528001b0caaeb0101c3eb1b4303eb214301ea9c
:1025380009014fea234ab64541ea0343944645f860
:10254800043be5d84ff6ff74c44504d355f8043d61
:1025580083b10761bee75cf8041b1afa81f31a1409
:1025680002eb1142234043ea02434fea224a45f86c
:08257800043be9e7013fe9e73c
:020000040000fa
:020000040040ba
:10258000000000000000f03f0000000000002440b8
:1025900000000000000059400000000000408f4093
:1025a000000000000088c34000000000006af840fe
:1025b0000000000080842e4100000000d012634122
:1025c0000000000084d797410000000065cdcd4198
:1025d000000000205fa00242000000e87648374279
:1025e000000000a2941a6d42000040e59c30a24217
:1025f0000000901ec4bcd64200003426f56b0c438c
:102600000080e03779c3414300a0d8855734764332
:1026100000c84e676dc1ab43003d9160e458e14393
:10262000408cb5781daf154450efe2d6e41a4b4408
:1026300092d54d06cff08044f64ae1c7022db5444d
:08264000b49dd9794378ea4406
:020000040000fa
:020000040040ba
:10264800f8b50e461446054618b183690bb900f073
:1026580061ff274b9c4230d16c68a369a360a389b2
:10266800190734d52369002b31d0b4f90c30f6b2f0
:102678009a04374634d523692068c01a63698342af
:1026880004dc2146284601f029f830bba368013b49
:10269800a36023685a1c22601e706369013083425c
:1026a80004d0a389db0706d50a2e04d12146284683
:1026b80001f014f888b93846f8bd0e4b9c4201d198
:1026c800ac68cae70c4b9c4208bfec68c5e72146da
:1026d8002846fff719fe0028c7d04ff0ff37eae772
:1026e80043f40053a381236e23f400532366c2e707
:0c26f800b8024020d80240209802402088
:020000040000fa
:020000040040ba
:10270400f8b5cd1c25f0030508350c2d38bf0c2574
:10271400002d064601dba94203d90c2333600020b7
:10272400f8bd00f0eef821490a6814469cb9204f20
:102734003b6823b92146304601f08afd38602946ba
:10274400304601f085fd431c23d10c233360304611
:1027540000f0cbf9e3e723685b1b17d40b2b03d9f9
:1027640023601c44256004e06368a2420cbf0b6034
:102774005360304600f0b9f904f10b00231d20f03a
:102784000700c21accd01b1aa350c9e722466468ba
:10279400cce7c41c24f00304a042e3d0211a304641
:1027a40001f056fd0130ddd1cfe700bf34034020f6
:0427b4003803402086
:020000040000fa
:020000040040ba
:1027b80080b584b000af264bbb6000237b60bb684c
:1027c8001b6a7b607b68002b08d07b689b68002baa
:1027d80004d07b689b685a1e7b689a6000f0f4fa04
:1027e8000023fb732de0fb7b1a4a5b01134415336e
:1027f8001b78dbb2002b21d0fb7b164a5b0113440c
:10280800153300221a70fb7b124a5b011344023312
:102818001b78012b12d1fa7bfb7b0e4952010a442b
:10282800043212680b495b010b4408331a60fb7bc6
:102838005b01084a13441846fff778fcfb7b013319
:10284800fb73fb7b042bced900bf1037bd4680bd80
:082858007002402070014020d5
:020000040000fa
:020000040040ba
:102860002de9f0470c464fea621a236949680aebe2
:102870000309a3680746164609f10105ab4233db9d
:10288000384600f0b7fd0023804600f1140100f146
:102890001002184653452adb20692aeaea7a04f135
:1028a000140316f01f0201eb8a0103eb800c22d007
:1028b000c2f1200e00201e689640304341f8040b00
:1028c00053f8040b9c4520fa0ef0f4d8086008b1c8
:1028d00009f10205013d3846c8f81050214601f0c3
:1028e000e8fa4046bde8f08701315b00c6e742f8f0
:1028f000040f0133cee7043953f8042b41f8042fb9
:062900009c45f9d8e6e752
:020000040000fa
:020000040040ba
:02290600704718
:020000040000fa
:020000040040ba
:1029080080b586b000af786039600023fb7500237e
:10291800bb6000233b617b68fb60fb68002b39d000
:1029280001f030f82ae000bf1d4b5b6903f001039a
:10293800002bf9d01a4b5b6903f0e003bb60bb685e
:10294800002b20d1164b5b6803f40033002b0bd00f
:10295800134b9b699bb2c3f308039ab2fb681a80b6
:10296800fb680233fb6006e00d4b9969fb685a1c53
:10297800fa60cab21a703b6901333b613a683b6935
:102988009a42d0d800e000bf3a683b699a4201d128
:102998000123fb75fb7d18461837bd4680bd00bf77
:0429a8000080024069
:020000040000fa
:020000040040ba
:0429ac0010024020b5
:020000040000fa
:020000040040ba
:1029b00001f0ff01102a2bdb10f0070f08d010f8f0
:1029c000013b013a8b422dd010f0070f42b3f6d1f4
:1029d000f0b441ea012141ea014122f007047ff00d
:1029e00000070023f0e80256083c85ea010586ea64
:1029f000010685fa47f5a3fa87f586fa47f6a5faa0
:102a000087f68eb9eed1f0bc01f0ff0102f00702ab
:102a100032b110f8013b013a83ea010313b1f8d156
:102a20000020704701387047002d06bf3546033837
:102a3000073815f0010f07d1013015f4807f02bf70
:102a4000013015f4c03f0130f0bc0138704700bfc1
:020000040000fa
:020000040040ba
:102a50002de9f74359ec108b0e4640f2ff7401212b
:102a6000154600f0c7fcc9f3130314ea195418bf44
:102a700043f480130193b8f10003074623d068465e
:102a8000009300f07bfd0099d8b1019ac0f12003ba
:102a900002fa03f30b43c2407b610192019bbb61cd
:102aa000002b14bf022101213961acb1a4f23344df
:102ab00004443460c0f135002860384603b0bde8f6
:102ac000f0837961eae701a800f058fd019b7b6182
:102ad000012139612030e8e707eb8103a0f23240a1
:0e2ae0003060186901f038f8c0eb4110e4e7ef
:020000040000fa
:020000040040ba
:022aee0070472f
:020000040000fa
:020000040040ba
:102af00038b50546002945d051f8043c0c1f002b81
:102b0000b8bfe418fff7fffe1f4a1368104633b939
:102b1000636014602846bde83840fff7e8bfa34271
:102b20000cd921686218934204bf1a685b6863601d
:102b300004bf521822600460ece713465a680ab1d9
:102b4000a242fad919685818a0420bd12068014452
:102b5000581882421960ddd1106852685a600144e9
:102b60001960d7e702d90c232b60d3e7206821181e
:102b70008a4204bf11685268626004bf091821606c
:0c2b80005c60c7e738bd00bf3403402094
:020000040000fa
:020000040040ba
:102b8c002de9f843154612f0030206460f4607d00e
:102b9c00013a214c002354f8222000f05ffa07463a
:102bac00ad1035d0746a3cb9102001f031fcc0e98d
:102bbc00014470620460c460d6f82480d8f80840e0
:102bcc004cb940f27121304601f0f7fb0023c8f8f4
:102bdc000800044603604ff00008eb070ad539469d
:102bec0022463046fff768f839468146304601f0f8
:102bfc005af94f466d100bd0206838b92246214641
:102c0c003046fff759f82060c0f800800446e4e72e
:0c2c1c003846bde8f88300bf704440005b
:020000040000fa
:020000040040ba
:102c280080b485b000af214b5b6903f48033002b7f
:102c380001d000bf34e01d4b0022c3f88420bff34d
:102c48004f8f1a4bd3f88030fb60fb685b0bc3f3e4
:102c58000e03bb60fb68db08c3f309037b60bb683a
:102c68005a0143f6e07313407a6892070f491343f9
:102c7800c1f860327b685a1e7a60002befd1bb68be
:102c88005a1eba60002be5d1bff34f8f074b5b6923
:102c9800064a43f480335361bff34f8fbff36f8ffe
:102ca80000bf1437bd465df8047b704700ed00e0b7
:020000040000fa
:020000040040ba
:102cb80080b487b000af78601f4bfb60fb681b6a6d
:102cc8007b6100233b61fb681b6a7b6104e07b69d5
:102cd8003b617b699b697b617b69002b03d07a69c7
:102ce8007b689a42f3d17b69002b1fd07b689b6974
:102cf800002b0ad07b689b68bb607b689b699968de
:102d08007b689b69ba680a449a603b69002b05d1c5
:102d1800fb681b6a9a69fb681a6203e07b689a6918
:102d28003b699a617b6800229a6100e000bf1c370a
:0c2d3800bd465df8047b7047700240202f
:020000040000fa
:020000040040ba
:102d44008b8973b59d0706460c4607d501f14703e9
:102d54000b600b6101234b6102b070bd01ab6a468d
:102d640000f0eefd009905463046fff7c9fc78b93e
:102d7400b4f90c309a05efd423f0030343f00203b3
:102d8400a38104f147032360236101236361e3e723
:102d94000d4bb362a389206043f08003a381009ba1
:102da4006361019b20615bb1b4f90e10304601f000
:102db4006ffa28b1a38923f0030343f00103a3812d
:0c2dc400a3891d43a581c7e759444000c6
:020000040000fa
:020000040040ba
:102dd00080b582b000af1f4b3b603b681b6a7b60d5
:102de0002ee07b689b68002b2ed17b6801221a7530
:102df0007b6801225a757b689b78002b09d17b6820
:102e0000db68002b05d07b68db69184600f020faf0
:102e100009e07868fff750ff7b689b78002b02d1b0
:102e20007b6800225a707b68db68002b05d07b68ca
:102e3000db687a681269104698473b681b6a7b60ba
:102e40007b68002bcdd100e000bf00bf0837bd4636
:082e500080bd00bf70024020ac
:020000040000fa
:020000040040ba
:102e58001e4b1f4a9342f0b438bf002103d203f837
:102e6800011b9342fbd11b4ad2e9000150ea01033e
:102e78004ff0000610d09468034602f10c076cb9b5
:102e880021b1014403f8016b9942fbd13a46d2e9da
:102e9800000150ea0103eed1f0bc704759b101f1cd
:102ea8000c030c38801a1a443b461c1813f8015bb3
:102eb80025709342f9d111f0030318bf012303ebe6
:102ec800910107eb81073a46e1e700bf0000402087
:082ed800040040200811400035
:020000040000fa
:020000040040ba
:102ee0000a43534141542074657374206170702efd
:102ef0000a53636f70652070726f626573206f6e26
:102f00003a0a50443235204e504353310a5044322d
:102f1000322053434b202875736520666f722073ef
:102f2000796e63290a50443230204d49534f20288e
:102f30006e6f7420616374697665290a5044504449
:102f400032310a4e504353312073686f756c6420e0
:102f500073746179206c6f77000000bf00048000fb
:042f60000102030463
:020000040000fa
:020000040040ba
:102f64002de9f74380460e46144601f079fa01280c
:102f74000ed1731efe2b0bd88df804600546002776
:102f84000df10409af4213d1304603b0bde8f0831c
:102f9400324604f1580301a9404600f0e1ff421c07
:102fa4000546ecd1a38943f04003a3810646ebe731
:102fb400a36817f80910013b002ba36004daa26987
:102fc400934207db0a2905d023685a1c2260197032
:102fd4000137d7e722464046fff734fb431cf7d1bd
:022fe400e4e720
:020000040000fa
:020000040040ba
:102fe80080b487b000af786039600023fb75002398
:102ff8003b617b68fb60fb68002b27d020e000bfab
:10300800164b5b6903f00203002bf9d0134b5b6886
:1030180003f40033002b0bd03b695a1c3a615b0068
:10302800fa6813441b880d4ac3f30803d36107e009
:103038003b695a1c3a61fa6813441a78074bda61fb
:103048003a683b699a42dad80123fb75fb7d18463a
:103058001c37bd465df8047b704700bf0080024006
:020000040000fa
:020000040040ba
:103068002de9f0410d691f4606460c4601f1140c86
:1030780000234ff6ff7edcf8000000ea0e0102fb99
:1030880001710f0c000c02fb007001ea0e01013304
:1030980001eb00419d424fea10474cf8041beadc63
:1030a800d7b1a368ab4212dc61683046013100f049
:1030b8009df92269023204f10c01804692000c301d
:1030c80001f010f92146304600f0effe444604ebcb
:0e30d800850301355f6125612046bde8f0816a
:020000040000fa
:020000040040ba
:1030e80080b489b000af78600023fb61194b5b683e
:1030f80001333b617b68184a02fb03f3fb60154b05
:103108001b6803f00103012b1ed1124b9b687b61e6
:1031180016e0104b9b68bb607a69bb68d31abb6129
:10312800ba687b699a4205d93a69bb68d31a7a6941
:103138001344bb61bb687b61fa69bb691344fb61db
:10314800fa69fb689a42e4d300bf2437bd465df8ac
:0c315800047b704710e000e0e0930400ee
:020000040000fa
:020000040040ba
:10316400f8b51b4b1e68b369074613b9304600f027
:10317400d3f94836d6e90134013b03d53368dbb1d2
:103184003668f7e7b4f90c50a5b9124b2566c4e9c3
:103194000055a560c4e90335c4e90555082229464c
:1031a40004f1580001f027f9c4e90d55c4e912559a
:1031b4002046f8bd6434dfe70421384600f0bafe47
:1031c400044630600028dbd10c233b60f0e700bfed
:0831d400ac2940000100ffffdf
:020000040000fa
:020000040040ba
:1031dc0080b582b000af174b1b7883f00103dbb2d4
:1031ec00002b06d0144800f02ffe124b01221a704f
:1031fc001ce0124a3b1d1268114619800233120c56
:10320c001a700f4b1b683b600d2000f0a5fd381d9c
:10321c00002300220321fef7ddfb384600230022a9
:10322c000421fef7d7fb0120fff758ff00bf08373a
:10323c00bd4680bd40034020e02e40005c2f400086
:04324c00602f4000af
:020000040000fa
:020000040040ba
:1032500080b584b000af78600023bb600123fb73ae
:1032600000f016fa034683f00103dbb2002b01d015
:10327000fb7b1ee0786800f0dff9b860bb68002bcc
:1032800014d0bb685b78002b05d0b868fff714fd3d
:10329000bb6800225a70bb6800221a75bb68002206
:1032a0005a75bb6800221a700023fb7300f0bafd48
:0a32b000fb7b18461037bd4680bdb9
:020000040000fa
:020000040040ba
:1032bc0080b400af174b1b6b164a23f070031363db
:1032cc0000bf144b9b6e03f00803082bf9d1114b74
:1032dc001b6b23f440730f4a43f48073136300bfda
:1032ec000c4b9b6e03f00803082bf9d1094b1b6b9d
:1032fc0023f00303074a43f00203136300bf054b9b
:10330c009b6e03f00803082bf9d100bfbd465df896
:08331c00047b704700060e401f
:020000040000fa
:020000040040ba
:1033240080b582b000af786000f070fe00f0c0ff9e
:1033340000f058fefef75af900f0b8fe00f0cafba0
:103344000d4b4ff400425a600c4b4ff400425a604c
:1033540000f07cfc00f01cfd0949002000f0acf8f2
:103364000246084b1a6000f0f7ff01f00df800bfa9
:103374000837bd4680bd00bf00190e4050180e40ee
:083384009444400020034020a6
:020000040000fa
:020000040040ba
:10338c0080b584b000af7860154bfb607b68bb6088
:10339c00bb681a68fb685a60fb684ff47a72da6093
:1033ac00bb6893f90420fb681a72fb6800225a610f
:1033bc00fb6800229a61fb6800221a62fb680022fb
:1033cc001a77fb685b681b68002106489847fb6806
:1033dc005b685b68984700bf1037bd4680bd00bf77
:0833ec00700240206d38400022
:020000040000fa
:020000040040ba
:1033f40070b5456a04460e463db9102001f00cf83c
:10340400c0e9015560620560c560656aeb6883b117
:10341400636adb6853f82600b8b9012101fa06f59e
:103424006a1d9200204600f07bff60b1c0e901658f
:103434000ee021220421204600f072ff636ae86056
:10344400db68002be4d1002070bd026843f826201d
:083454000023c0e90333f7e790
:020000040000fa
:020000040040ba
:10345c0080b400af114b1b6a114a1a400f49114b33
:10346c0013430b620d4b1a6a0c490f4b13430b623f
:10347c0000bf0a4b9b6e03f48033b3f5803ff8d149
:10348c00064b1a6a094b1340044a43f45c1313624b
:10349c0000bfbd465df8047b704700bf00060e40c0
:1034ac00fcffc8ff0200370000003701f7ffc8ff20
:020000040000fa
:020000040040ba
:1034bc0080b584b000af03463960fb803b68002bbd
:1034cc0002d0fb88002b02d04ff0ff3316e00d4bdf
:1034dc00fb60fb6801221a700123012b02d04ff014
:1034ec00ff330be03868fff74bffa02200210648a2
:1034fc0000f07dff054b02221a70044b1846103762
:10350c00bd4680bd940240207001402070024020d6
:020000040000fa
:020000040040ba
:10351c00836910b5044633bbc0e912330365124b03
:10352c00124a1b688262984204bf01238361fff731
:10353c0013fe60602046fff70ffea0602046fff7e9
:10354c000bfe0022e0600421606800f0d1f901223a
:10355c000921a06800f0ccf902221221e06800f0e9
:10356c00c7f90123a36110bdac29400059444000a8
:020000040000fa
:020000040040ba
:10357c00036813f0070201460bd0da0724d499072d
:10358c004bbf5b089b08036003604cbf012002200b
:10359c00704798b2b0b91b0c102013f0ff0f04bf8a
:1035ac001b0a08301a0704bf1b0904309a0704bf12
:1035bc009b080230da0703d45b0800f1010005d048
:1035cc000b6070471046e8e70020704720207047da
:020000040000fa
:020000040040ba
:1035dc0008b50f4b98470f4b984700f0f3f90020b4
:1035ec00fef7fefe00f000fcfff730fc0a4b23f068
:1035fc007f030a4a93600a4b984700f0bff8fff725
:10360c000dfb084b9847084b984700f0e8fefee787
:10361c000f2340000f2340000000400000ed00e0ad
:0c362c00b53840000f2340000f23400081
:020000040000fa
:020000040040ba
:1036380080b485b000af78600023fb607b68b3f18d
:10364800ff3f17d07b68002b14d07b689bb2042bfc
:1036580010d87b689bb25b010a4a1344fb60fb6885
:10366800db697a689a4205d1fb681b78002b01d088
:10367800fb6800e0002318461437bd465df8047b5c
:08368800704700bf70014020f3
:020000040000fa
:020000040040ba
:1036900080b582b000af114b1b7f002b18d1104baf
:1036a0007b604ff6ff737b807b681b78012b04d116
:1036b0007b6800221a70012300e00023012b05d152
:1036c000064b5b689b699847012302e0002300e0fa
:1036d000012318460837bd4680bd00bf7002402058
:0436e00094024020f0
:020000040000fa
:020000040040ba
:1036e40038b50b6905460c46dbb118b183690bb9d3
:1036f400fff712ff0c4b9c4209d16c68b4f90c30f3
:103704007bb121462846bde83840fef709bc074b8b
:103714009c4201d1ac68f1e7054b9c4208bfec68c0
:10372400ece7002038bd00bfb8024020d80240209a
:043734009802402097
:020000040000fa
:020000040040ba
:1037380080b483b000af114b5b681b0cdbb203f0a5
:103748000f03fb71fb790e2b01d100230fe0fb79ee
:103758000d2b01d101230ae0fb790b2b01d10223a8
:1037680005e0fb79072b01d1032300e0002318466d
:103778000c37bd465df8047b704700bf00800040f1
:020000040000fa
:020000040040ba
:1037880080b400af114b5b6903f40033002b01d008
:1037980000bf15e0bff34f8fbff36f8f0b4b0022b5
:1037a800c3f85022bff34f8fbff36f8f074b5b698e
:1037b800064a43f400335361bff34f8fbff36f8f53
:1037c80000bfbd465df8047b704700bf00ed00e018
:020000040000fa
:020000040040ba
:1037d800f8b50e46096e8904074614460bd4d51869
:1037e800ac420dd0324614f8011b384600f046fbb7
:1037f8000130f5d10ee023f00303d518ac4201d116
:10380800002009e0324654f8041b384600f078fde1
:0a3818000130f3d14ff0ff30f8bd8e
:020000040000fa
:020000040040ba
:1038240080b485b000af78607b6803f00703fb6069
:103834000b4bdb68bb60ba684ff6ff031340bb60f9
:10384400fb681a02bb681a43064b1343bb60044a65
:10385400bb68d36000bf1437bd465df8047b704776
:0838640000ed00e00000fa0590
:020000040000fa
:020000040040ba
:10386c0080b584b000af786039600e4bfb60fb68ac
:10387c001b6abb6000f002fabb68002b0dd0fb6822
:10388c001b7f0133dab2fb681a77fef78ffffb68f8
:10389c001b7f013bdab2fb681a7700bf1037bd46bd
:0838ac0080bd00bf7002402046
:020000040000fa
:020000040040ba
:1038b40070b50d4d0d4c641ba4100026a64209d111
:1038c4000b4d0c4cfcf74efc641ba4100026a642c6
:1038d40005d170bd55f8043b98470136eee755f81d
:1038e400043b98470136f2e774014000740140003c
:0838f40074014000780140005e
:020000040000fa
:020000040040ba
:1038fc00002310b50446c0e9003383608181036660
:10390c00c281c0e90433836119460822583000f0a3
:10391c006efd054b6362054ba362054be362054be1
:10392c002462236310bd00bff3414000c13c400042
:08393c00f94040009d444000e9
:020000040000fa
:020000040040ba
:1039440070b50e46b1f90e10002990b014461d460c
:1039540007da00232b60b3891a0610d44ff480636e
:103964000ee001aa00f0eafb0028f2db029a02f45e
:103974007042a2f500535a425a412a60eee74023ae
:083984000020236010b070bdab
:020000040000fa
:020000040040ba
:10398c0080b483b000af0023fb710d4b5b6903f077
:10399c00e003002b0dd00a4b4ff480721a6002e04a
:1039ac00074b9b69fb71064b5b6903f00103002b12
:1039bc00f6d100bf0c37bd465df8047b704700bfe5
:0439cc000080024035
:020000040000fa
:020000040040ba
:1039d00080b483b000afeff310833b603b687b6043
:1039e00072b60b4bd3f88830094a43f47003c2f81f
:1039f0008830bff34f8fbff36f8f7b68002b00d1f0
:103a000062b600bf0c37bd465df8047b704700bf4f
:043a100000ed00e0e5
:020000040000fa
:020000040040ba
:103a140080b582b000af00f077fa0346fb710b4b20
:103a240007221a60094b1b6803f48033002b05d06e
:103a3400074b5b68064a43f080635360fb79184682
:103a440000f0bafa00bf0837bd4680bd10e000e0c0
:043a540000ed00e0a1
:020000040000fa
:020000040040ba
:103a580010b5054c237833b9044b13b10448aff3c0
:103a680000800123237010bdf802402000000000f0
:103a78000000000008b5034b1bb103490348aff32e
:103a8800008008bd00000000fc024020000000008b
:020000040000fa
:020000040040ba
:103a980080b400af0b4b9a680a490b4b13438b60f9
:103aa800084b1a680749094b13430b6000bf054bc5
:103ab8005b6903f08003002bf9d000bfbd465df8b9
:103ac800047b704710180e40000010a5080000a5e0
:020000040000fa
:020000040040ba
:103ad80080b400af0b4b00221a600a4b00229a6098
:103ae800084b094a5a60074b06221a60074b002206
:103af8009a60064b00221a6000bfbd465df8047b41
:103b0800704700bf10e000e0df930400140340207a
:020000040000fa
:020000040040ba
:103b180080b487b000af78600c4b7b617b695b69d0
:103b28003b617b6800221a703b690133fb60fa68cd
:103b38003b699a4202d27b6801221a70fb681846d8
:103b48001c37bd465df8047b704700bf70024020fb
:020000040000fa
:020000040040ba
:103b5800020c12040346cab90304102013f07f4f65
:103b680004bf1b02083013f0704f04bf1b01043060
:103b780013f0404f04bf9b000230002b05db13f00d
:103b8800804f00f1010008bf202070470020e5e7c2
:020000040000fa
:020000040040ba
:103b980070b5b9b115460ab1022801d9284670bdd9
:103ba8000a4b2bb108461146aff30080284670bd7a
:103bb8000c468e1814f8010b00f000f9b442f9d144
:103bc800284670bd0d46284670bd00bf00000000a5
:020000040000fa
:020000040040ba
:103bd80080b582b000af0b4b1b687b600a4b9b68bb
:103be8000133094a9360084b1b68002b05d0064b2c
:103bf8001b68054a52681046984700bf0837bd46fb
:0c3c080080bd00bf10e000e0140340206d
:020000040000fa
:020000040040ba
:103c14002de9f8438046894600f14804002614b98a
:103c24003046bde8f883d4e90175013f01d5246825
:103c3400f5e7ab89012b07d9b5f90e30013303d071
:0c3c440029464046c84706436435eee7b9
:020000040000fa
:020000040040ba
:103c500080b400af0a4b82221a60094b094a5a60ad
:103c6000074b40f209525a63054b49f20a62da6384
:103c7000034b01221a6000bfbd465df8047b70470c
:083c80000080004011000d005e
:020000040000fa
:020000040040ba
:103c880080b582b000af0b4b7b600023fb70fb1c40
:103c98001846fff73dff02467b685a61fb78012b07
:103ca80004d17b689b695a1c7b689a6100bf0837fe
:083cb800bd4680bd70024020f2
:020000040000fa
:020000040040ba
:103cc0002de9f0411f468b89db0505460c4616465b
:103cd00005d502230022b1f90e1000f043faa389a2
:103ce000b4f90e1023f48053a38132463b46284694
:083cf000bde8f04100f012ba3a
:020000040000fa
:020000040040ba
:103cf80080b584b000af78600023bb600023fb73fd
:103d080007f1080301211846fef7fafd0346fb7385
:103d1800fb7b83f00103dbb2002bf1d1bb681846b3
:063d28001037bd4680bd0e
:020000040000fa
:020000040040ba
:103d2e0003690a699b1a30b50cd192001430143114
:103d3e008418114454f8045d51f8042d954203d0b3
:103d4e0005d30123184630bda042f3d3fae74ff056
:043d5e00ff33f7e751
:020000040000fa
:020000040040ba
:103d640080b483b000af0346fb71084b5b6823f457
:103d74007022fb791b0403f47023044913434b6042
:103d840000bf0c37bd465df8047b704700800040df
:020000040000fa
:020000040040ba
:103d940080b400af094b4ff486721a60074b50226f
:103da4001a60064b4ff40c625a60044b51221a629b
:103db40000bfbd465df8047b704700bf0080024031
:020000040000fa
:020000040040ba
:103dc40080b584b000af0346fb710023fb73fb1d79
:103dd40001211846fff706f90346fb73fb7b83f0ca
:103de4000103dbb2002bf2d100bf1037bd4680bd0a
:020000040000fa
:020000040040ba
:103df400bff34f8fbff36f8f084bd3f8902222f09d
:103e04000102c3f89022d3f8942222f00102c3f8ed
:103e14009422bff34f8fbff36f8f704700ed00e024
:020000040000fa
:020000040040ba
:103e240080b582b000af084b5b685b699847064b6e
:103e34001b7f002b04d1054b7b607b6801221a7029
:103e440000bf0837bd4680bd700240209402402068
:020000040000fa
:020000040040ba
:103e54000fb40a4b13b51c6824b1a36913b92046e7
:103e6400fff75afb05ab049aa16801932046fdf7be
:103e7400b9fc02b0bde8104004b0704730034020e4
:020000040000fa
:020000040040ba
:103e84009368013b002b10b4936008da9469a34251
:103e940001db0a2903d15df8044bfef7d3bb136899
:0e3ea400581c1060197008465df8044b7047fa
:020000040000fa
:020000040040ba
:103eb20070b5446a06460d463cb9102000f0adfad2
:103ec200c0e9014470620460c4603db1736a6a680b
:0e3ed200db6853f82210296043f8225070bdbf
:020000040000fa
:020000040040ba
:103ee00080b400af074b084a9a6200bf054b9b6e37
:103ef00003f00203022bf9d100bfbd465df8047b3d
:0c3f0000704700bf00060e40013f182073
:020000040000fa
:020000040040ba
:103f0c0080b483b000afeff310833b603b68002bb1
:103f1c000cbf01230023fb7172b6bff35f8ffb79db
:0c3f2c0018460c37bd465df8047b70475a
:020000040000fa
:020000040040ba
:103f380070b54a1e642555430e4605f17001fef71b
:103f4800ddfb044640b10021c0e900160c30a0603a
:0c3f580005f1640200f04dfa204670bd37
:020000040000fa
:020000040040ba
:103f6400f0b5094c85b005461e46d4f8e04009b9c1
:103f74000a4601a9a047431c01bf002333608a23da
:0c3f84002b6005b0f0bd00bf0400402021
:020000040000fa
:020000040040ba
:103f9000074a136843b10749184488428cbf4ff061
:103fa000ff33106018467047034b1360f3e700bf00
:0c3fb0003c03402048054020480340200e
:020000040000fa
:020000040040ba
:103fbc0080b483b000af0346fb71fb79002b03d0b8
:103fcc00bff35f8f62b602e072b6bff35f8f00bfc4
:0a3fdc000c37bd465df8047b70470a
:020000040000fa
:020000040040ba
:103fe80080b500affff754fdfff734fafff774ff11
:103ff800fff760f9024b034a1a6100bf80bd00bf9a
:0840080000060e40005c2300dd
:020000040000fa
:020000040040ba
:1040100080b500af074b1b685b680021184600f0b5
:10402000f4f9044b1b689b680021184600f0edf979
:0840300000bf80bd30034020f9
:020000040000fa
:020000040040ba
:1040380080b483b000af78603960064a7b6813604b
:10404800044a3b68536000bf0c37bd465df8047beb
:08405800704700bf1403402073
:020000040000fa
:020000040040ba
:104060000080e03779c34143176e05b5b5b8934674
:10407000f5f93fe9034f384d321d30f94877825a40
:084080003cbf737fdd4f157595
:020000040000fa
:020000040040ba
:1040880070b569b115464ab140b90c468e18012081
:10409800fff72efe04f8010ba642f8d1284670bda2
:0840a8000d46284670bd00bf63
:020000040000fa
:020000040040ba
:1040b00080b400af054b20221a63054b4ff4807289
:1040c0001a6300bfbd465df8047b7047000e0e40ca
:0440d00000100e408e
:020000040000fa
:020000040040ba
:1040d40080b400af064b00229a60054b1b68044a6b
:1040e40043f00103136000bfbd465df8047b7047d5
:0440f40010e000e0f8
:020000040000fa
:020000040040ba
:1040f80010b50c46b1f90e1000f030f8431ca38936
:1041080015bf606523f4805343f48053a38118bf1f
:04411800a38110bdb2
:020000040000fa
:020000040040ba
:10411c0038b5074c054608461146002222601a465f
:10412c0000f0def9431c02d1236803b12b6038bdcb
:04413c00000040201f
:020000040000fa
:020000040040ba
:1041400038b5074c0023054608461146236000f0a9
:10415000c5f9431c02d1236803b12b6038bd00bff1
:0441600000004020fb
:020000040000fa
:020000040040ba
:1041640038b5074c054608461146002222601a4617
:1041740000f0b6f9431c02d1236803b12b6038bdab
:0441840000004020d7
:020000040000fa
:020000040040ba
:1041880082b001b901a942b14bb113780b60127822
:10419800101c18bf012002b070471046fbe76ff0f3
:0441a8000100f8e733
:020000040000fa
:020000040040ba
:1041ac0038b5074c054608461146002222601a46cf
:1041bc0000f094f9431c02d1236803b12b6038bd85
:0441cc00000040208f
:020000040000fa
:020000040040ba
:1041d000303132333435363738394142434445463d
:1041e00000303132333435363738396162636465d3
:0241f000660067
:020000040000fa
:020000040040ba
:1041f20010b50c46b1f90e10fff7d7ff0028abbf80
:10420200636da3891b1823f48053acbf6365a3813c
:0242120010bddd
:020000040000fa
:020000040040ba
:1042140080b400af054b1b68044a23f0010313600c
:1042240000bfbd465df8047b704700bf10e000e0ae
:020000040000fa
:020000040040ba
:1042340080b483b000af7860044a7b68013b53606c
:1042440000bf0c37bd465df8047b704710e000e00a
:020000040000fa
:020000040040ba
:1042540038b5064c0023054608462360fff796fe52
:10426400431c02d1236803b12b6038bd00004020f9
:020000040000fa
:020000040040ba
:1042740038b5064c002305460846236000f02af9a9
:10428400431c02d1236803b12b6038bd00004020d9
:020000040000fa
:020000040040ba
:1042940038b5064c002305460846236000f01ef995
:1042a400431c02d1236803b12b6038bd00004020b9
:020000040000fa
:020000040040ba
:1042b40080b400af034b044a1a6000bfbd465df8ea
:0c42c400047b7047000c0e400006000454
:020000040000fa
:020000040040ba
:1042d00039404000d540400015424000a143400015
:0c42e00035424000153a40007543400094
:020000040000fa
:020000040040ba
:1042ec000a44914200f1ff3300d1704710b511f828
:0c42fc00014b03f8014f9142f9d110bdb5
:020000040000fa
:020000040040ba
:10430800b2f90c3013f4005f06d143f400539381e3
:0c431800136e43f400531366fef720be42
:020000040000fa
:020000040040ba
:1043240038b502fb01f42146fef7eaf9054618b157
:0c4334002246002100f05ff8284638bd4a
:020000040000fa
:020000040040ba
:1043400049b1ff2a85bf8a2303600a704ff0ff300e
:0a43500098bf01207047084670472f
:020000040000fa
:020000040040ba
:10435c0080b400af034b00221a7000bfbd465df85d
:08436c00047b70474003402070
:020000040000fa
:020000040040ba
:1043740080b400af034b05221a6000bfbd465df850
:08438400047b704710e000e02b
:020000040000fa
:020000040040ba
:10438c0080b500af0020fff747fabff35f8f62b62e
:04439c0000bf80bd21
:020000040000fa
:020000040040ba
:1043a00080b400af024b1846bd465df8047b7047f1
:0443b00000a3e11174
:020000040000fa
:020000040040ba
:1043b400494e4600696e66004e414e006e616e00c5
:0243c4003000c7
:020000040000fa
:020000040040ba
:1043c60010b50c460121fff712f801224461026183
:0243d60010bd18
:020000040000fa
:020000040040ba
:1043d800232d302b2000686c4c00656667454647e6
:0143e80000d4
:020000040000fa
:020000040040ba
:1043ea0080b500af0020fef798ff00f02af8fce73e
:020000040000fa
:020000040040ba
:1043fa0002440346934200d1704703f8011bf9e7d0
:020000040000fa
:020000040040ba
:10440a0000294ff480630cbf02220022fdf7a9bbea
:020000040000fa
:020000040040ba
:10441c00024b01461868fef76fb900bf300340200d
:020000040000fa
:020000040040ba
:10442c00034613f8012b002afbd1181a01387047e8
:020000040000fa
:020000040040ba
:0f443c00496e66696e697479004e614e003000fa
:020000040000fa
:020000040040ba
:0c444c0080b500affef7c4fe00bf80bdcd
:020000040000fa
:020000040040ba
:0c4458000149fff7dbbb00bfe536400068
:020000040000fa
:020000040040ba
:0c446400014b93f8280170470400402031
:020000040000fa
:020000040040ba
:0c44700005000000190000007d000000a5
:020000040000fa
:020000040040ba
:0c447c004ff400534b600020704700bf5d
:020000040000fa
:020000040040ba
:0b4488004300504f53495800002e0025
:020000040000fa
:020000040040ba
:08449400d0424000ff000000cf
:020000040000fa
:020000040040ba
:08449c00b1f90e10fff7e8beb4
:020000040000fa
:020000040040ba
:0844a40000487047f4004020bd
:020000040000fa
:020000040040ba
:0844ac004ff0ff30704700bf24
:020000040000fa
:020000040040ba
:0644b40080b400affee73a
:020000040000fa
:020000040040ba
:0644ba0080b400affee734
:020000040000fa
:020000040040ba
:0644c00080b400affee72e
:020000040000fa
:020000040040ba
:0644c60080b400affee728
:020000040000fa
:020000040040ba
:0644cc0080b400affee722
:020000040000fa
:020000040040ba
:0644d20080b400affee71c
:020000040000fa
:020000040040ba
:0444d800fff7e8bf43
:020000040000fa
:020000040040ba
:0444dc00fff7cebf59
:020000040000fa
:020000040040ba
:0444e00000f006b82a
:020000040000fa
:020000040040ba
:0444e40000f006b826
:020000040000fa
:020000040040ba
:0444e800fff7cebd4f
:020000040000fa
:020000040040ba
:0444ec00fff754bbc7
:020000040000fa
:020000040040ba
:0444f00001207047f0
:020000040000fa
:020000040040ba
:0444f40000207047ed
:020000040000fa
:02000004d0002a
:0400000002000000fa
:00000001FF
